:02000000BD2B16
:10077A008301CB2BCF30831686001F3085000800FB
:10078A00103083128606203086060800BF232130E7
:10079A0083128D0076308C008C0BD12B8D0BD12BD4
:1007AA00640083120616861603308E0088308D0088
:1007BA0056308C008C0BDF2B8D0BDF2B8E0BDF2B37
:1007CA00E62B8312051CEA2BEB2BF22B8518EE2B5A
:1007DA00EF2BE62BF22BF22BF22BC523523083128E
:1007EA008D0029308C008C0BF82B8D0BF82BFD2BF0
:0607FA00F22BF22B002897
:00000001FF
