:100000000C9467000C948F000C948F000C948F005C
:100010000C948F000C948F000C9438070C948F0074
:100020000C948F000C948F000C948F000C948F0014
:100030000C948F000C948F000C948F000C948F0004
:100040000C94DB040C948F000C947A040C945404EC
:100050000C948F000C948F000C948F000C948F00E4
:100060000C948F000C948F00890C890C890C540C13
:10007000AC0CBB0C890C890C540CAC0C00000000BF
:10008000240027002A0000000000250028002B0083
:10009000040404040404040402020202020203032E
:1000A0000303030301020408102040800102040836
:1000B00010200102040810200000000800020100C6
:1000C000000304070000000000000000DC0C112405
:1000D0001FBECFEFD8E0DEBFCDBF11E0A0E0B1E0A2
:1000E000EAEDF3E202C005900D92AA34B107D9F708
:1000F00022E0AAE4B1E001C01D92AA37B207E1F7FD
:1001000010E0C7E6D0E004C02197FE010E94AF10C6
:10011000C636D107C9F70E94C50F0C94EB110C9499
:100120000000CF93DF9300D000D01F92CDB7DEB791
:1001300024E0C22ED12C35E0632E712C99E0592E8B
:1001400000914B0110914C017D826C82B12C90E0AA
:10015000480181E1880E911C0FB6F8940F92D801E6
:100160005A968C915A97882391F181505A968C9384
:100170005A978D919C91892BA1F480917B0190914C
:100180007C01892B39F0E0917B01F0917C0182A107
:100190008F5F82A380917B0190917C01F801958310
:1001A0008483D80118968C91882339F0C801089669
:1001B0000E94800781110E9402080F900FBE81E00B
:1001C00090914A01992309F427C180E025C12C812F
:1001D0003D81232B09F41DC1911109C080911D029D
:1001E000898380911B0290911C029B838A830F90CC
:1001F0000FBE0E9427070FB6F8940F92F801858D65
:100200008F3F09F4158ED8015E968C915E978F3FD3
:1002100011F45E961C920F900FBEBE016C5F7F4F73
:10022000CE0101960E94E70681118BC0C8010E9491
:100230002D07882309F47FC0F80180819181892BE3
:1002400009F068C00FB6F8940F92E480F580E114CD
:10025000F10409F45CC0F7018689E0917B01F0911B
:100260007C019689891708F046C0D7011C962D910C
:100270003C911D9737FD0CC0E0917B01F0917C0112
:1002800096899601291B31091D963C932E931C9744
:10029000589EC0011124825E9D4FF701228533854F
:1002A00028173907F1F45701F2E0AF0EB11CC50170
:1002B0000E943B07E0917B01F0917C018689D70188
:1002C00056968C9390914202981710F480934202B4
:1002D000589EC0011124B501825E9D4F0E945F07A8
:1002E00007C0E0917B01F0917C018689F701868B44
:1002F000BB24B3940DC0E0917B01F0917C01BB2441
:10030000B394D70191969C918689981708F0B12CE7
:100310000F900FBE6C817D81C4010E94120AC8013A
:100320000E94C0070E94BF08882311F091E014CFFB
:100330000E940208FBCFC8010E94C0070E94BF08AC
:10034000F5CFC8010E94C0070E94BF08C8010E94E3
:100350002D07882359F3BB2009F4F2CE0FB6F89489
:100360000F92F8018189882339F00688F789E02DFA
:10037000908184E0891B01C080E0D80114960D9122
:100380001C9115970115110509F443C0F80191A1BD
:10039000981708F4982FD80156968C91569789177C
:1003A000C1F192962C919297213099F556969C9393
:1003B00056971C962D913C911D9737FD07C09601CD
:1003C000291B31091D963C932E931C97589EC00102
:1003D0001124825E9D4FF801228533852817390745
:1003E000C1F47801F2E0EF0EF11CC7010E943B0757
:1003F000D80156968C9190914202981710F48093F0
:100400004202589EC0011124B701825E9D4F0E9496
:100410005F070F900FBE94CE80934A0188E191E070
:100420000E94C9048DE291E00E94C904E5ECF0E06D
:100430008491E1EBF0E09491EDE9F0E0E491EE23BA
:1004400009F43EC020914A01882339F1833091F0AC
:1004500038F48130A9F0823001F584B58F7D12C067
:10046000873091F08830A1F08430B9F48091800019
:100470008F7D03C0809180008F77809380000DC0B6
:1004800084B58F7784BD09C08091B0008F7703C099
:100490008091B0008F7D8093B000F0E0EE0FFF1FE1
:1004A000EA57FF4FA591B4913FB7F894211104C0CA
:1004B0008C919095982302C0EC919E2B9C933FBF0A
:1004C0000E94270760E08EE390E00E94D70A0E9416
:1004D000BF08811102C00E94020860E070E08091B4
:1004E0004B0190914C010E94090D28CE80E391E0D0
:1004F0000E94C9048DE291E00E94C90480915801D4
:100500008F5F8093580160E070E080914B01909183
:100510004C010C94090D80914F01882309F10FB60D
:10052000F8940F92E0916E01F0916F01C681D7812E
:10053000CE0102960E943B0780917D0181508093FD
:100540007D0180914F01815080934F010F900FBE2C
:100550008F89988D0E94310ACE010E94310ADBCF2B
:1005600080911E02823010F00E9402088091580192
:10057000811102C00E9476020E944A04CCCF0F93E0
:100580001F93CF93DF93E1EBF0E02491EDE9F0E0EE
:100590008491882399F090E0880F991FFC01E4581A
:1005A000FF4FA591B491FC01EA57FF4F85919491BB
:1005B0008FB7F894EC91E22BEC938FBF8EE791E02C
:1005C0000E942804E0918E01F0918F0182E08083E7
:1005D000E0918A01F0918B011082E0918C01F09101
:1005E0008D018FEC808310929601E0919201F09141
:1005F000930186E08083E0919001F09191018081E8
:1006000080618083E0919001F09191018081886008
:100610008083E0919001F0919101808180688083D6
:10062000E0919001F091910180818F7D80838FE135
:1006300090E00E94420AEC01009791F09983888330
:1006400081E08B8F1C8ECE010E946B0F1D821C825D
:10065000198218821E8260E070E0CE010E94090DAE
:10066000D0934C01C0934B0100E010E024E640E839
:1006700050E06AE371E081E990E00E94FA0DDF91B9
:10068000CF911F910F910895CF92DF92EF92FF9239
:100690000F931F93CF93DF936C017A018B01C0E01E
:1006A000D0E0CE15DF0581F0D8016D918D01D60126
:1006B000ED91FC910190F081E02DC6010995892B07
:1006C00011F02196EECF7E01C701DF91CF911F91EE
:1006D0000F91FF90EF90DF90CF900895089580E004
:1006E00090E00895FC01538D448D252F30E0842F38
:1006F00090E0821B930B541710F0CF96089501974A
:100700000895FC01918D828D981761F0828DDF0133
:10071000A80FB11D5D968C91928D9F5F9F73928FF4
:1007200090E008958FEF9FEF0895FC01918D828DE9
:10073000981731F0828DE80FF11D858D90E00895B6
:100740008FEF9FEF0895FC01918D228D892F90E00E
:10075000805C9F4F821B91098F73992708958EE7C4
:1007600091E00E94A30321E0892B09F420E0822F6D
:100770000895FC01848DDF01A80FB11DA35ABF4F5E
:100780002C91848D90E001968F739927848FA68990
:10079000B7892C93A089B1898C91837080648C93E4
:1007A000938D848D981306C00288F389E02D808193
:1007B0008F7D80830895EF92FF920F931F93CF93C5
:1007C000DF93EC0181E0888F9B8D8C8D981305C0A1
:1007D000E889F989808185FD26C0F62E0B8D10E011
:1007E0000F5F1F4F0F731127E02E8C8DE8120CC086
:1007F0000FB607FCFACFE889F989808185FFF5CF2C
:10080000CE010E94B903F1CF8B8DFE01E80FF11DDF
:10081000E35AFF4FF0829FB7F8940B8FEA89FB8968
:10082000808180620AC09FB7F894EE89FF89608357
:10083000E889F98980818370806480839FBF81E02B
:1008400090E0DF91CF911F910F91FF90EF9008956D
:10085000CF93DF93EC01888D8823C9F0EA89FB8967
:10086000808185FD05C0A889B9898C9186FD0FC05E
:100870000FB607FCF5CF808185FFF2CFA889B98933
:100880008C9185FFEDCFCE010E94B903E7CFDF91B8
:10089000CF91089580E090E0892B29F00E94AF036A
:1008A00081110C94000008951F920F920FB60F92C1
:1008B00011242F933F934F935F936F937F938F9365
:1008C0009F93AF93BF93EF93FF938EE791E00E94C6
:1008D000B903FF91EF91BF91AF919F918F917F915C
:1008E0006F915F914F913F912F910F900FBE0F909D
:1008F0001F9018951F920F920FB60F9211242F93ED
:100900008F939F93EF93FF93E0918E01F0918F016E
:100910008081E0919401F091950182FD12C0908157
:10092000809197018F5F8F7320919801821751F00A
:10093000E0919701F0E0E258FE4F958F8093970188
:1009400001C08081FF91EF919F918F912F910F9026
:100950000FBE0F901F901895E0915E01F0915F011E
:100960008081811103C08FEF9FEF0CC0E0915E0189
:10097000F0915F010580F681E02D0680F781E02D82
:1009800082819381909357018093560108950E942C
:10099000D611009769F0FC0101900020E9F731972A
:1009A000AF01481B590BBC018EE791E00C94440346
:1009B00080E090E008951F920F920FB60F921124DD
:1009C0002F933F938F939F93AF93BF9380915E023A
:1009D00090915F02A0916002B091610230915D023E
:1009E00023E0230F2D3720F40196A11DB11D05C072
:1009F00026E8230F0296A11DB11D20935D0280936E
:100A00005E0290935F02A0936002B09361028091B6
:100A1000590290915A02A0915B02B0915C0201963A
:100A2000A11DB11D8093590290935A02A0935B02BD
:100A3000B0935C02BF91AF919F918F913F912F91A5
:100A40000F900FBE0F901F9018950F920FB6F8944D
:100A50000F921F9211242F923F924F925F926F92AA
:100A60007F928F929F92AF92BF92CF92DF92EF923E
:100A7000FF920F931F932F933F934F935F936F9327
:100A80007F938F939F93AF93BF93CF93DF93EF9316
:100A9000FF93A0917B01B0917C010DB60D920EB633
:100AA0000D9213BE809159018111F3C080911B02F8
:100AB00090911C02019690931C0280931B02009758
:100AC00099F520915E0130915F0140915C01509158
:100AD0005D0150935F0140935E0130935D0120936F
:100AE0005C0120911D022F5F20931D02E0915E01A9
:100AF000F0915F012081211107C02FEF3FEF30936C
:100B000057012093560110C0E0915E01F0915F0102
:100B10000580F681E02D0680F781E02D228133816A
:100B2000309357012093560120915601309157017F
:100B30008217930708F49CC020E019E0E0915E0161
:100B4000F0915F013081311107C08FEF9FEF9093DB
:100B50005701809356018DC0E0915E01F0915F01D5
:100B60000580F681E02D0680F781E02D42815381DA
:100B70008417950728F4509357014093560179C084
:100B8000AF014E5F5F4FA285B38564817581E680BA
:100B9000F780EB01FD82EC82C681D7817B836A837B
:100BA00011966D917C9112974617570721F4129672
:100BB000DC93CE931197138612863C9131503C936F
:100BC0003C91A489B5891097F9F066857785E0880E
:100BD000F188EB01FD82EC82C089D1897B836A8335
:100BE0001196ED90FC901297BF01645F7F4FE6165F
:100BF000F70621F41296DC93CE931197158A148A86
:100C00003C9131503C933C91A689309142023A1775
:100C100010F4A09342021A9FD0011124BD01625E1C
:100C20007D4F7B01DB011196CD91DC911297D5832D
:100C3000C4836C817D81778366836C817D81DB01D8
:100C400013965C934E9312975D834C83F386E286F2
:100C5000E70138813F5F3883A0917B01B0917C012F
:100C6000468956963C91431708F468CF21E066CF39
:100C700020E0E0917B01F0917C01E689D9E0ED9FD5
:100C8000F0011124E25EFD4F8081823040F021E0CE
:100C900006C080914D018F5F80934D0120E08091CF
:100CA0004E01811103C0222309F466C080915901CD
:100CB000882321F081E080934E015EC010924E01A6
:100CC000A0917B01B0917C01E0917B01F0917C01CE
:100CD0002D913C918789908D82179307A8F0809180
:100CE0007B0190917C0180917B0190917C01259A00
:100CF0002D9A2FEF67EA71E6215060407040E1F7CE
:100D000000C000001D9AF5CF8091420269E001C049
:100D10008150482F50E0649F9001659F300D112451
:100D2000F901E25EFD4F9081992391F3A181B28197
:100D300012960D90BC91A02DB283A1832F5D3D4FE3
:100D4000A217B30731F412962D913C911397328379
:100D5000218399E0949FF001959FF00D1124E25EAC
:100D6000FD4F0180F281E02D2681378130937C0197
:100D700020937B0180934202A0917B01B0917C0182
:100D8000CD91CDBFDD91DEBFFF91EF91DF91CF918E
:100D9000BF91AF919F918F917F916F915F914F9193
:100DA0003F912F911F910F91FF90EF90DF90CF9087
:100DB000BF90AF909F908F907F906F905F904F907B
:100DC0003F902F901F900F900FBE0F900895FC0141
:100DD000DB010FB6F8940F9240911B0250911C0258
:100DE0002D913C9111972F3F8FEF380701F18181B1
:100DF000928160911D027081761719F0481759078A
:100E0000C0F4481B590B4217530770F4241B350BD1
:100E10002D933C9380911D02808380911B029091C1
:100E20001C029283818303C01D921C9202C080E049
:100E300001C081E00F900FBE08950FB6F8940F9295
:100E400080911B0290911C020F900FBE089580911B
:100E500059018F5F8093590108950FB6F8940F924E
:100E6000FC01928D0F900FBE81E0911180E00895FA
:100E70000E9425051895CF93DF93FC01A085B185CD
:100E80008281938124813581EC013D832C83C4814F
:100E9000D5819B838A8311968D919C911297E81737
:100EA000F90721F41296DC93CE93119711861086E0
:100EB0008C9181508C938C91DF91CF910895CF9339
:100EC000DF939C01FB01DC011196CD91DC9112971F
:100ED000D383C2838C819D81958384838C819D8102
:100EE000DC0113967C936E9312977D836C8331871C
:100EF0002087F90180818F5F8083DF91CF910895F2
:100F00000F931F93CF93DF93DC011596ED91FC9126
:100F10001697C681D7818E01045F1F4FC8010E94BA
:100F20003B0780915901811114C00A501109C80171
:100F30000E943B078E8990914202981710F480938B
:100F40004202B9E08B9FC0011124B801825E9D4F1F
:100F500003C0B80182E791E00E945F07E0917B0146
:100F6000F0917C019E898689891720F481E0809325
:100F70004E0101C080E0DF91CF911F910F91089544
:100F8000EF92FF920F931F93CF93DF93EC010FB675
:100F9000F8940F921E8D7C0181E1E80EF11C01E0B6
:100FA00011165CF48989882341F0C7010E948007EB
:100FB000811100934E011150F3CF8FEF8E8F0F9060
:100FC0000FBE0FB6F8940F921D8D7E0188E0E80EDB
:100FD000F11C01E011165CF48885882341F0C701FB
:100FE0000E948007811100934E011150F3CF8FEFC3
:100FF0008D8F0F900FBEDF91CF911F910F91FF90BA
:10100000EF9008950F920FB6F8940F921F9211244B
:101010002F923F924F925F926F927F928F929F9208
:10102000AF92BF92CF92DF92EF92FF920F931F93F6
:101030002F933F934F935F936F937F938F939F93E0
:10104000AF93BF93CF93DF93EF93FF93A0917B0177
:10105000B0917C010DB60D920EB60D9280915901A2
:10106000882321F081E080934E015EC010924E01F2
:10107000A0917B01B0917C01E0917B01F0917C011A
:101080002D913C918789908D82179307A8F08091CC
:101090007B0190917C0180917B0190917C01259A4C
:1010A0002D9A2FEF87EA91E6215080409040E1F79A
:1010B00000C000001D9AF5CF8091420269E001C096
:1010C0008150482F50E0649F9001659F300D11249E
:1010D000F901E25EFD4F9081992391F3A181B281E4
:1010E00012960D90BC91A02DB283A1832F5D3D4F30
:1010F000A217B30731F412962D913C9113973283C6
:10110000218399E0949FF001959FF00D1124E25EF8
:10111000FD4F0180F281E02D2681378130937C01E3
:1011200020937B0180934202A0917B01B0917C01CE
:10113000CD91CDBFDD91DEBFFF91EF91DF91CF91DA
:10114000BF91AF919F918F917F916F915F914F91DF
:101150003F912F911F910F91FF90EF90DF90CF90D3
:10116000BF90AF909F908F907F906F905F904F90C7
:101170003F902F901F900F900FBE0F9008958F9269
:101180009F92AF92BF92CF92DF92EF92FF920F9316
:101190001F93CF93DF930FB6F8940F92809159016C
:1011A00081508093590180915901882311F080E08A
:1011B000F2C080917D018823D1F3C0E0D0E029E026
:1011C000F22EEE24E39480917201882351F1E09194
:1011D0007701F0917801C681D781CE010C960E94EB
:1011E0003B078E010E5F1F4FC8010E943B078E898F
:1011F00090914202981710F480934202F89EC00129
:101200001124B801825E9D4F0E945F07E0917B012F
:10121000F0917C019E8986899817A8F2E0924E0190
:10122000D2CFCD2B11F00E94AC04E0904D01EE2006
:1012300009F4A9C089E0982E88248394CC24CA9408
:10124000DC2C8091590181118CC0C0911B02D0917E
:101250001C022196D0931C02C0931B022097B9F464
:1012600080915E0190915F0120915C0130915D0160
:1012700030935F0120935E0190935D0180935C0148
:1012800080911D028F5F80931D020E94AC048091AB
:10129000560190915701F12CC817D90708F451C095
:1012A000E0915E01F0915F018081811105C0D092D3
:1012B0005701C092560145C0E0915E01F0915F0177
:1012C0000580F681E02D06811781D80112968D9157
:1012D0009C911397C817D90728F4909357018093CE
:1012E00056012FC05801B2E0AB0EB11CC5010E94DF
:1012F0003B07F80184899589892B21F0C8010C9658
:101300000E943B07D80156968C9190914202981703
:1013100010F480934202989EC0011124B501825EB0
:101320009D4F0E945F07E0917B01F0917C01D80105
:1013300056969C918689981708F4B2CFFF24F394AF
:10134000AFCFE0917B01F0917C01E6899E9EF00198
:101350001124E25EFD4F8081823048F0FF24F39437
:1013600006C080914D018F5F80934D01F12C8091DB
:101370004E01811101C0F11080924E01EA94E110FA
:1013800060CF10924D0180914E01882309F40FCF58
:101390000E94020881E00F900FBEDF91CF911F9154
:1013A0000F91FF90EF90DF90CF90BF90AF909F9004
:1013B0008F9008950F931F93CF93DF938C01FB01C0
:1013C000808191818F3F2FEF920721F4E801AF8157
:1013D000B8850EC0D801139612962D913C911397A3
:1013E000E901488159818417950710F0D901F4CF9C
:1013F00012968D919C91139793838283EC01FD83C8
:10140000EC83B583A4831396FC93EE931297118714
:101410000087F80180818F5F8083DF91CF911F91DA
:101420000F910895CF93DF93EB0160917B01709151
:101430007C01645F7F4F0E94DA0961E0CE01DF9199
:10144000CF910C94D70AFC010396928381832FEFEE
:101450003FEF34832383968385839087878310822D
:101460000895CF93DF93009751F0EC010E94270776
:10147000CE010E944D11DF91CF910C94BF08DF91F6
:10148000CF910895CF93DF93EC010E942707CE01FF
:101490000E94B510EC010E94BF08209769F4259ABC
:1014A0002D9A2FEF80E792E0215080409040E1F7A5
:1014B00000C000001D9AF5CFCE01DF91CF910895B5
:1014C000FC0173836283918780874617570778F002
:1014D000421B530B8485958548175907C8F4BF01F3
:1014E0006E5F7F4F80915201909153010DC0421762
:1014F000530718F46217730758F4BF016E5F7F4FEC
:1015000080915401909155010E94DA0980E008957C
:1015100081E00895EF92FF920F931F93CF93DF9393
:10152000E0915401F09155018081882369F1058093
:10153000F681E02D00811181C681D7817E0182E094
:10154000E80EF11CC7010E943B07E989FA89CE0128
:1015500009958E85813021F78C859D85800F911F9F
:101560000817190760F49B838A83D987C887B70156
:1015700080915401909155010E94DA09D1CFB801B0
:10158000CE010E949C0FCCCF8091520190915301CB
:101590009093550180935401F0935301E0935201CD
:1015A000DF91CF911F910F91FF90EF900895FF92DF
:1015B0000F931F93CF93DF93EC01F62E00911B0244
:1015C00010911C0280917B0190917C0102960E94F7
:1015D0003B07CF3F8FEFD80789F4FF2079F0609168
:1015E0007B0170917C016E5F7F4F80E691E0DF911F
:1015F000CF911F910F91FF900C945F07C00FD11FE7
:10160000E0917B01F0917C01D383C28360917B01E7
:1016100070917C01C017D10768F480915C019091B2
:101620005D016E5F7F4FDF91CF911F910F91FF9012
:101630000C94DA0980915E0190915F016E5F7F4F9B
:101640000E94DA098091560190915701C817D90775
:1016500020F4D0935701C0935601DF91CF911F9191
:101660000F91FF900895CF93DF93CDB7DEB72A9700
:101670000FB6F894DEBF0FBECDBFE0915401F091DC
:101680005501F080FF2031F00580F681E02D0081CA
:10169000118102C000E010E00E9427070E941D0790
:1016A0006C018091500190915101C816D90620F427
:1016B0000E948A0A81E001C080E0D0925101C0926C
:1016C0005001811175C0FF2089F1C016D106B0F11B
:1016D0000E94BF08E0915401F09155010580F68108
:1016E000E02DE680F780C70102960E943B07D701F4
:1016F0001E968C911E97813089F41C966D917C9179
:101700001D97600F711F9801A601C7010E94600A12
:10171000882321F0B801C7010E949C0FD701519680
:10172000ED91FC915297C7010995BEC0E09152011D
:10173000F09153018081BB24B3948111B12CE090CE
:101740005A01F0905B010FB6F8940F92F701858D66
:101750008F3F09F4158ED7015E968C915E978F3F6F
:1017600011F45E961C920F900FBEF701828D8111CD
:1017700015C060917B0170917C01645F7F4FC70150
:1017800041960E945F07B11004C0C8018C199D09E1
:1017900002C08FEF9FEF6B2D0E94D70AC7010E94F6
:1017A000C0070E94BF0881117FC00E9402087CC050
:1017B0000E94BF0879C0811109C080911D028E83EB
:1017C00080911B0290911C0298878F830F900FBE0F
:1017D0000E9427070FB6F8940F92D8015D968C915E
:1017E0005D978F3F11F45D961C92F801868D8F3FB7
:1017F00009F4168E0F900FBEBE01675F7F4FCE01BA
:1018000006960E94E7068111CBC0C8010E942D07F1
:10181000882309F4BFC069857A85C6010E94120A2F
:10182000C8010E94C0070E94BF08882309F4AFC006
:1018300081E00FB6F8940F92F801F28CFF2009F4C2
:101840009EC0448D41113CC0FA94F801F28E80850F
:10185000811150C00F900FBED980D7FC25C00C81DC
:101860001D81D8011A968D919C911B97892B21F08F
:10187000C80102960E943B070E941D077C018091CF
:10188000500190915101E816F90610F40E948A0A5D
:10189000F0925101E09250018D2DDD0C990BAA0BB5
:1018A000BB0B8A30910580F100915A0110915B01C8
:1018B0001A86198680E06801B1E1CB0ED11CB9CF40
:1018C00050E086819781840F951F978386832481BA
:1018D00035818217930720F08081918197838683D9
:1018E000D80116966D917C911797CE0101960E94B2
:1018F000DB11AACFC80108960E948007882309F44B
:10190000A9CF0E940208A6CFFC01EC5CFF4F0C940B
:10191000AF10CA80DB80F801648575856C0D7D1D74
:101920009601A701C8010E94600A882309F4BCCF70
:10193000D8015196ED91FC915297C8010995F80193
:101940008685813009F0B0CF648575856C0D7D1D6D
:10195000C8010E949C0FA8CF6A817B81D8011D9687
:101960007C936E931C976E0D7F1D9701A701C80194
:101970000E94600A99CFC8010E94310A95CF29853B
:101980003A85232B09F017CF0F900FBE76CE0E9419
:1019900002084ECFC8010E94C0070E94BF0848CF6E
:1019A000C8010E94C0070E94BF08C8010E942D07FD
:1019B000882309F43DCF61CEEEE7F1E01382128275
:1019C00088EE93E0A0E0B0E084839583A683B7839C
:1019D0008AE091E09183808385EC90E0958784870D
:1019E00084EC90E09787868780EC90E0918B808BE9
:1019F00081EC90E0938B828B82EC90E0958B848BD2
:101A000086EC90E0978B868B118E128E138E148E3F
:101A10000895AF92BF92DF92EF92FF920F931F93C0
:101A2000CF93DF9300D000D01F92CDB7DEB78C01EB
:101A30007B011D821C8280E0580198E0A90EB11C38
:101A40000FB6F8940F92F801228D938D291708F0A4
:101A50006DC0D28C448D41113FC080819181892B12
:101A600009F052C0F801E480F580E114F10411F4AA
:101A700080E02EC0F70182A1815082A3268991A126
:101A80002917B1F38111F4CF5701F2E0AF0EB11C69
:101A9000C5010E943B07F70181A1868B482F50E0CA
:101AA00024E030E0241B350B3587248790914202D7
:101AB000981710F48093420229E0249FC001259FCB
:101AC000900D1124B501825E9D4F0E945F0781E059
:101AD000F8011582148219C050E0B701F801828123
:101AE00093810E94DB11F801248D82819381820F02
:101AF000911D93838283248135818217930720F07F
:101B0000808191819383828380E0D394F801D28E87
:101B10009189992321F0C80141960E948007811183
:101B20000E9402080F900FBE81E055C02C813D81BC
:101B3000232B19F40F900FBE4DC0811109C0809165
:101B40001D02898380911B0290911C029B838A83D2
:101B50000F900FBE0E9427070FB6F8940F92F8015E
:101B6000858D8F3F09F4158EF801868D8F3F09F41E
:101B7000168E0F900FBEBE016C5F7F4FCE01019697
:101B80000E94E706811121C00FB6F8940F92F80168
:101B9000928D838D0F900FBE981311C06C817D8143
:101BA000C5010E94120AC8010E94C0070E94BF0816
:101BB000882311F081E044CF0E940208FBCFC801C6
:101BC0000E94C0070E94BF08F5CFC8010E94C0074D
:101BD0000E94BF0880E00F900F900F900F900F9021
:101BE000DF91CF911F910F91FF90EF90DF90BF9009
:101BF000AF9008957F928F929F92AF92BF92CF92B3
:101C0000DF92EF92FF920F931F93CF93DF93982E63
:101C1000C92E762E872EEA01D22ECA010E94420AD0
:101C20005C01892B09F448C188E290E00E94420AD5
:101C30007C010097D9F0DC015896BC92AE92579780
:101C4000AE0165EA70E0C5010E94E4112197D70159
:101C50005796ED91FC915897EC0FFD1FB701675E09
:101C60007F4FA72DB82DCD01089607C0C5010E9452
:101C7000310A22C1A817B90749F09D014D91EB0126
:101C80004993BE01E90128812111F4CFD701909633
:101C90001C922D2D243008F023E0E7012E8B29A380
:101CA0001AA21B861A861D8A1C8AF986E88684E099
:101CB00090E0821B91099D878C87FB8AEA8A1BA290
:101CC0001CA21DA21EA21FA291E19083DF01119709
:101CD00082E28C93119723E32C9311979C92119796
:101CE000CC9211971C92119720E82C9311971C927B
:101CF000119722E02C93119723E02C93119724E065
:101D00002C93119725E02C93119726E02C93119793
:101D100027E02C93119728E02C93119729E02C931E
:101D2000119720E12C9311979C93119792E19C932A
:101D3000119793E19C93119794E19C93119795E1EE
:101D40009C93119796E19C93119797E19C9311971F
:101D500098E19C93119799E19C93119790E29C9341
:101D6000119791E29C9311978C93119783E28C9336
:101D700011971C9211971C92119786E28C931197E0
:101D800087E28C93119788E28C93119789E28C9368
:101D9000119780E38C93119781E38C93B697F98325
:101DA000E8830115110519F0F801F182E0820FB600
:101DB000F8940F9280917D018F5F80937D018091D7
:101DC0007B0190917C01892BD1F5F0927C01E0920E
:101DD0007B0180917D01813009F043C08EE192E06A
:101DE0000E94230A87E292E00E94230A80E392E0A5
:101DF0000E94230A89E392E00E94230A8BE692E084
:101E00000E94230A82E692E00E94230A82E791E080
:101E10000E94230A89E691E00E94230A80E691E06D
:101E20000E94230A8BE692E090935F0180935E010B
:101E300082E692E090935D0180935C0112C08091F4
:101E4000750281110EC0E0917B01F0917C019689B1
:101E5000D70156968C91891720F0F0927C01E09280
:101E60007B01809174028F5F80937402E7018E89F9
:101E700090914202981710F480934202D9E08D9F0E
:101E8000C0011124B7016E5F7F4F825E9D4F0E949B
:101E90005F070F900FBE80917502882359F0E09183
:101EA0007B01F0917C019689F7018689981710F4DF
:101EB0000E94020881E001C08FEFDF91CF911F9156
:101EC0000F91FF90EF90DF90CF90BF90AF909F90D9
:101ED0008F907F900895CF93DF93EC010FB6F89425
:101EE0000F92488159818B8D6C8D9A01869F200DB0
:101EF000311D11243D832C831A8E5B834A8390E02D
:101F00000197689F9001699F300D1124CA01820FCB
:101F1000931F9F838E838FEF8D8F8E8FCE010896B8
:101F20000E94230ACE0141960E94230A0F900FBE01
:101F300081E0DF91CF910895CF93DF9300D000D05F
:101F40001F92CDB7DEB79C0180915A0190915B0141
:101F5000009761F019827B836A833D832C832091F3
:101F60007502222329F02091590102C080E005C0AA
:101F7000BE016F5F7F4F0E94090D0F900F900F9071
:101F80000F900F90DF91CF910895789484B582607F
:101F900084BD84B5816084BD85B5826085BD85B50D
:101FA000816085BD80916E00816080936E0010928B
:101FB0008100809181008260809381008091810006
:101FC0008160809381008091800081608093800097
:101FD0008091B10084608093B1008091B0008160F5
:101FE0008093B00080917A00846080937A00809121
:101FF0007A00826080937A0080917A008160809379
:102000007A0080917A00806880937A001092C100F3
:102010000E94BF0207E512E020E040EC50E06DE3D3
:1020200071E08BE892E00E94FA0D813009F08CC0DB
:102030000FB6F8940F9280915A0190915B01892B11
:1020400049F58CE492E00E94230A83E492E00E9426
:10205000230A8CE492E0909355018093540183E429
:1020600092E0909353018093520181E590E00E94A9
:10207000420AEC01009751F04F96998388838AE0D9
:102080008B8F85E08C8FCE010E946B0FD0935B010C
:10209000C0935A010F900FBE80915A0190915B013D
:1020A000892B09F451C005E512E023E045E550E035
:1020B00062E471E083E39BE00E94FA0D813009F055
:1020C00043C0F8942FEF3FEF309357012093560110
:1020D0008093750210921C0210921B02A89590EC3E
:1020E00088E10FB6F894A895809360000FBE909396
:1020F0006000A0917B01B0917C01CD91CDBFDD91BD
:10210000DEBFFF91EF91DF91CF91BF91AF919F9192
:102110008F917F916F915F914F913F912F911F917F
:102120000F91FF90EF90DF90CF90BF90AF909F9076
:102130008F907F906F905F904F903F902F901F9067
:102140000F900FBE0F9008950E94BF02809158011A
:10215000811102C00E9476020E944A04F7CFEE0F5E
:10216000FF1F0590F491E02D09940F931F93CF93D7
:10217000DF938230910510F482E090E0E0917802E4
:10218000F091790220E030E0A0E0B0E0309719F162
:10219000408151810281138148175907C8F0841783
:1021A000950769F4109731F012960C9312971396D5
:1021B0001C9327C0009378021093790222C0211546
:1021C000310519F04217530718F49A01BD01EF01C8
:1021D000DF01F801DBCF21153105F9F0281B390BA0
:1021E0002430310580F48A819B816115710521F0CD
:1021F000FB019383828304C09093790280937802D9
:10220000FE01329644C0FE01E20FF31F81939193C9
:1022100022503109398328833AC0209176023091C7
:102220007702232B41F42091020130910301309376
:10223000770220937602209100013091010121154F
:10224000310541F42DB73EB740910401509105018D
:10225000241B350BE0917602F0917702E217F30729
:10226000A0F42E1B3F0B2817390778F0AC014E5F06
:102270005F4F2417350748F04E0F5F1F50937702CA
:10228000409376028193919302C0E0E0F0E0CF01A9
:10229000DF91CF911F910F910895CF93DF93009716
:1022A00009F481C0FC01329713821282A091780256
:1022B000B0917902109781F420813181820F931FB0
:1022C00020917602309177022817390751F5F09363
:1022D0007702E093760267C0ED0120E030E0CE1790
:1022E000DF0740F44A815B819E0141155105F1F001
:1022F000EA01F5CFD383C28340815181840F951FBA
:10230000C817D90759F488819981840F951F0296BF
:10231000918380838A819B819383828321153105F8
:1023200029F4F0937902E09378023DC0E901FB8340
:10233000EA8349915991C40FD51FEC17FD0761F449
:1023400080819181840F951F0296E901998388838A
:10235000828193819B838A83E0E0F0E012968D91E5
:102360009C911397009719F0FD01DC01F7CF8D9137
:102370009C9111979D012E5F3F4F820F931F2091DB
:102380007602309177022817390769F4309729F4DB
:10239000109279021092780202C013821282B093D6
:1023A0007702A0937602DF91CF91089581E090E0CB
:1023B000F8940C94EB11FB01DC0102C001900D922A
:1023C00041505040D8F70895DC0101C06D93415051
:0A23D0005040E0F70895F894FFCFA5
:1023DA0000007A02800000000000DB03440372035D
:1023EA002804A30381039503496E747275736F20E1
:1023FA006174617175652061204C4544000D0A00C5
:10240A00454D50455A414D4F530054310049444CB3
:0A241A004500546D722053766300F4
:107E0000112484B714BE81FFF0D085E080938100F7
:107E100082E08093C00088E18093C10086E0809377
:107E2000C20080E18093C4008EE0C9D0259A86E02C
:107E300020E33CEF91E0309385002093840096BBD3
:107E4000B09BFECF1D9AA8958150A9F7CC24DD24C4
:107E500088248394B5E0AB2EA1E19A2EF3E0BF2EE7
:107E6000A2D0813461F49FD0082FAFD0023811F036
:107E7000013811F484E001C083E08DD089C08234E0
:107E800011F484E103C0853419F485E0A6D080C0E4
:107E9000853579F488D0E82EFF2485D0082F10E0AE
:107EA000102F00270E291F29000F111F8ED06801E7
:107EB0006FC0863521F484E090D080E0DECF843638
:107EC00009F040C070D06FD0082F6DD080E0C81688
:107ED00080E7D80618F4F601B7BEE895C0E0D1E017
:107EE00062D089930C17E1F7F0E0CF16F0E7DF06D8
:107EF00018F0F601B7BEE89568D007B600FCFDCFD4
:107F0000A601A0E0B1E02C9130E011968C91119780
:107F100090E0982F8827822B932B1296FA010C0160
:107F200087BEE89511244E5F5F4FF1E0A038BF0790
:107F300051F7F601A7BEE89507B600FCFDCF97BE46
:107F4000E89526C08437B1F42ED02DD0F82E2BD052
:107F50003CD0F601EF2C8F010F5F1F4F84911BD097
:107F6000EA94F801C1F70894C11CD11CFA94CF0C13
:107F7000D11C0EC0853739F428D08EE10CD085E9AC
:107F80000AD08FE07ACF813511F488E018D01DD067
:107F900080E101D065CF982F8091C00085FFFCCF94
:107FA0009093C60008958091C00087FFFCCF809118
:107FB000C00084FD01C0A8958091C6000895E0E648
:107FC000F0E098E1908380830895EDDF803219F02E
:107FD00088E0F5DFFFCF84E1DECF1F93182FE3DFCA
:107FE0001150E9F7F2DF1F91089580E0E8DFEE27F6
:047FF000FF270994CA
:027FFE00040479
:0400000300007E007B
:00000001FF
