:100000000C943F000C9467000C9467000C946700FC
:100010000C9467000C9467000C94FF040C94670028
:100020000C9467000C9467000C9467000C946700B4
:100030000C9467000C9467000C9467000C946700A4
:100040000C94A2020C9467000C9405020C94DF013E
:100050000C9467000C9467000C9467000C94670084
:100060000C9467000C946700400A400A400A0B0A8F
:10007000630A720A400A400A0B0A630AB10A112491
:100080001FBECFEFD8E0DEBFCDBF11E0A0E0B1E0F2
:10009000EEE7FFE102C005900D92A035B107D9F758
:1000A00022E0A0E5B1E001C01D92AC37B207E1F754
:1000B00010E0CFE3D0E004C02197FE010E94810E42
:1000C000CE33D107C9F70E94DE0A0C94BD0F0C9401
:1000D0000000CF92DF92EF92FF920F931F93CF9386
:1000E000DF936C017A018B01C0E0D0E0CE15DF0513
:1000F00081F0D8016D918D01D601ED91FC910190B7
:10010000F081E02DC6010995892B11F02196EECFE3
:100110007E01C701DF91CF911F910F91FF90EF906A
:10012000DF90CF900895089580E090E00895FC015D
:10013000538D448D252F30E0842F90E0821B930B4C
:10014000541710F0CF96089501970895FC01918DF2
:10015000828D981761F0828DDF01A80FB11D5D9629
:100160008C91928D9F5F9F73928F90E008958FEF97
:100170009FEF0895FC01918D828D981731F0828D4B
:10018000E80FF11D858D90E008958FEF9FEF0895A2
:10019000FC01918D228D892F90E0805C9F4F821B06
:1001A00091098F73992708958FEB91E00E94C80001
:1001B00021E0892B09F420E0822F0895FC01848D31
:1001C000DF01A80FB11DA35ABF4F2C91848D90E081
:1001D00001968F739927848FA689B7892C93A0895C
:1001E000B1898C91837080648C93938D848D9813E6
:1001F00006C00288F389E02D80818F7D8083089579
:10020000EF92FF920F931F93CF93DF93EC0181E066
:10021000888F9B8D8C8D981305C0E889F989808122
:1002200085FD26C0F62E0B8D10E00F5F1F4F0F735C
:100230001127E02E8C8DE8120CC00FB607FCFACF08
:10024000E889F989808185FFF5CFCE010E94DE0023
:10025000F1CF8B8DFE01E80FF11DE35AFF4FF082C5
:100260009FB7F8940B8FEA89FB89808180620AC06E
:100270009FB7F894EE89FF896083E889F9898081C6
:100280008370806480839FBF81E090E0DF91CF9195
:100290001F910F91FF90EF900895CF93DF93EC01A2
:1002A000888D8823C9F0EA89FB89808185FD05C096
:1002B000A889B9898C9186FD0FC00FB607FCF5CFD0
:1002C000808185FFF2CFA889B9898C9185FFEDCF18
:1002D000CE010E94DE00E7CFDF91CF91089580E04C
:1002E00090E0892B29F00E94D40081110C94000029
:1002F0000895E0917901F0917A018081811103C024
:100300008FEF9FEF0CC0E0917901F0917A010580A9
:10031000F681E02D0680F781E02D82819381909314
:100320006E0180936D0108950F931F93EFEBF1E041
:10033000A089B18982E08C93A485B5851C92A6859D
:10034000B7858FEC8C93108EA489B58986E08C9349
:10035000A289B3898C9180618C93A289B3898C9195
:1003600088608C93A289B3898C9180688C93028871
:10037000F389E02D80818F7D808300E010E024E60A
:1003800040E850E068E171E089E492E00E94E70C07
:1003900024E140E850E06DE171E080E492E00E94E9
:1003A000E70C23E040E850E062E271E087E392E08E
:1003B0000E94E70C1F910F9108950E94A80F1F92B1
:1003C0000F920FB60F9211242F933F934F935F9389
:1003D0006F937F938F939F93AF93BF93EF93FF930D
:1003E0008FEB91E00E94DE00FF91EF91BF91AF9102
:1003F0009F918F917F916F915F914F913F912F913D
:100400000F900FBE0F901F9018951F920F920FB66E
:100410000F9211242F938F939F93EF93FF93E0916B
:10042000CF01F091D0018081E091D501F091D6010A
:1004300082FD12C090818091D8018F5F8F732091CF
:10044000D901821751F0E091D801F0E0E154FE4F5C
:10045000958F8093D80101C08081FF91EF919F918A
:100460008F912F910F900FBE0F901F90189587E2DC
:1004700091E00E9480028EE390E00E94AC08F7CFEA
:100480008FE291E00E9480028EE390E00E94AC082F
:10049000F7CF87E391E00E9480028CE190E00E9418
:1004A000AC08F7CF80915201882309F10FB6F89478
:1004B0000F92E0918901F0918A01C681D781CE0126
:1004C00002960E9402058091BE0181508093BE0178
:1004D000809152018150809352010F900FBE8F89FD
:1004E000988D0E94CF08CE010E94CF08DBCF80916B
:1004F0009601823010F00E94C9050E946F01D2CF90
:10050000CF93DF93009779F0FC0101900020E9F789
:100510003197AF01481B590BBC018FEB91E00E9452
:100520006900EC0102C0C0E0D0E042E050E06CE4C1
:1005300071E08FEB91E00E9469008C0F9D1FDF91AD
:10054000CF9108951F920F920FB60F9211242F93FF
:100550003F938F939F93AF93BF938091610290914C
:100560006202A0916302B09164023091600223E0C4
:10057000230F2D3720F40196A11DB11D05C026E8DB
:10058000230F0296A11DB11D20936002809361028A
:1005900090936202A0936302B093640280915C0224
:1005A00090915D02A0915E02B0915F020196A11D43
:1005B000B11D80935C0290935D02A0935E02B093A4
:1005C0005F02BF91AF919F918F913F912F910F90BB
:1005D0000FBE0F901F9018950FB6F8940F92809150
:1005E0007401909175010F900FBE08950FB6F894A5
:1005F0000F92FC01928D0F900FBE81E0911180E06F
:1006000008950F920FB6F8940F921F9211242F9213
:100610003F924F925F926F927F928F929F92AF9292
:10062000BF92CF92DF92EF92FF920F931F932F937F
:100630003F934F935F936F937F938F939F93AF936A
:10064000BF93CF93DF93EF93FF93A091BC01B09141
:10065000BD010DB60D920EB60D9213BE80917101C3
:100660008111F3C08091740190917501019690936E
:10067000750180937401009799F52091790130916B
:100680007A01409177015091780150937A0140931B
:1006900079013093780120937701209176012F5FC3
:1006A00020937601E0917901F0917A012081211166
:1006B00007C02FEF3FEF30936E0120936D0110C004
:1006C000E0917901F0917A010580F681E02D0680B4
:1006D000F781E02D2281338130936E0120936D01EB
:1006E00020916D0130916E018217930708F49CC030
:1006F00020E019E0E0917901F0917A013081311127
:1007000007C08FEF9FEF90936E0180936D018DC0B6
:10071000E0917901F0917A010580F681E02D068063
:10072000F781E02D428153818417950728F4509377
:100730006E0140936D0179C0AF014E5F5F4FA2859E
:10074000B38564817581E680F780EB01FD82EC82E0
:10075000C681D7817B836A8311966D917C911297B4
:100760004617570721F41296DC93CE931197138600
:1007700012863C9131503C933C91A489B5891097E5
:10078000F9F066857785E088F188EB01FD82EC82DF
:10079000C089D1897B836A831196ED90FC90129772
:1007A000BF01645F7F4FE616F70621F41296DC93D3
:1007B000CE931197158A148A3C9131503C933C9109
:1007C000A6893091BA013A1710F4A093BA011A9F82
:1007D000D0011124BD016A567E4F7B01DB011196C9
:1007E000CD91DC911297D583C4836C817D81778311
:1007F00066836C817D81DB0113965C934E93129727
:100800005D834C83F386E286E70138813F5F38835E
:10081000A091BC01B091BD01468956963C91431709
:1008200008F468CF21E066CF20E0E091BC01F091B0
:10083000BD01E689D9E0ED9FF0011124EA56FE4F93
:100840008081823040F021E006C0809150018F5FAE
:100850008093500120E080915101811103C0222337
:1008600009F466C080917101882321F081E08093B2
:1008700051015EC010925101A091BC01B091BD0127
:10088000E091BC01F091BD012D913C918789908D43
:1008900082179307A8F08091BC019091BD018091CF
:1008A000BC019091BD01259A2D9A2FEF67EA71E660
:1008B000215060407040E1F700C000001D9AF5CF64
:1008C0008091BA0169E001C08150482F50E0649FD7
:1008D0009001659F300D1124F901EA56FE4F908179
:1008E000992391F3A181B28112960D90BC91A02D14
:1008F000B283A18327563E4FA217B30731F4129655
:100900002D913C9113973283218399E0949FF001BC
:10091000959FF00D1124EA56FE4F0180F281E02DE3
:10092000268137813093BD012093BC018093BA01A9
:10093000A091BC01B091BD01CD91CDBFDD91DEBFD5
:10094000FF91EF91DF91CF91BF91AF919F918F91E7
:100950007F916F915F914F913F912F911F910F91D7
:10096000FF90EF90DF90CF90BF90AF909F908F90CF
:100970007F906F905F904F903F902F901F900F90BF
:100980000FBE0F900895FC01DB010FB6F8940F9293
:1009900040917401509175012D913C9111972F3F19
:1009A0008FEF380701F1818192816091760170812A
:1009B000761719F048175907C0F4481B590B42170E
:1009C000530770F4241B350B2D933C9380917601D3
:1009D000808380917401909175019283818303C01B
:1009E0001D921C9202C080E001C081E00F900FBEFA
:1009F0000895809171018F5F8093710108950E9425
:100A000001031895CF93DF93FC01A085B185828106
:100A1000938124813581EC013D832C83C481D58170
:100A20009B838A8311968D919C911297E817F90701
:100A300021F41296DC93CE931197118610868C9137
:100A400081508C938C91DF91CF910895CF93DF9358
:100A50009C01FB01DC011196CD91DC911297D383AF
:100A6000C2838C819D81958384838C819D81DC01EF
:100A700013967C936E9312977D836C8331872087C6
:100A8000F90180818F5F8083DF91CF9108950F936B
:100A90001F93CF93DF93DC011596ED91FC91169790
:100AA000C681D7818E01045F1F4FC8010E940205D5
:100AB00080917101811114C00A501109C8010E946E
:100AC00002058E899091BA01981710F48093BA01AB
:100AD000B9E08B9FC0011124B8018A569E4F03C014
:100AE000B8018DE891E00E942605E091BC01F091EB
:100AF000BD019E898689891720F481E08093510188
:100B000001C080E0DF91CF911F910F910895EF9286
:100B1000FF920F931F93CF93DF93EC010FB6F894DE
:100B20000F921E8D7C0181E1E80EF11C01E011168F
:100B30005CF48989882341F0C7010E94470581112F
:100B4000009351011150F3CF8FEF8E8F0F900FBE96
:100B50000FB6F8940F921D8D7E0188E0E80EF11C0F
:100B600001E011165CF48885882341F0C7010E94DA
:100B700047058111009351011150F3CF8FEF8D8FF5
:100B80000F900FBEDF91CF911F910F91FF90EF90CB
:100B900008950F920FB6F8940F921F9211242F927E
:100BA0003F924F925F926F927F928F929F92AF92FD
:100BB000BF92CF92DF92EF92FF920F931F932F93EA
:100BC0003F934F935F936F937F938F939F93AF93D5
:100BD000BF93CF93DF93EF93FF93A091BC01B091AC
:100BE000BD010DB60D920EB60D9280917101882354
:100BF00021F081E0809351015EC010925101A091DB
:100C0000BC01B091BD01E091BC01F091BD012D91FD
:100C10003C918789908D82179307A8F08091BC0141
:100C20009091BD018091BC019091BD01259A2D9AB2
:100C30002FEF87EA91E6215080409040E1F700C015
:100C400000001D9AF5CF8091BA0169E001C0815082
:100C5000482F50E0649F9001659F300D1124F901E9
:100C6000EA56FE4F9081992391F3A181B2811296A9
:100C70000D90BC91A02DB283A18327563E4FA217A1
:100C8000B30731F412962D913C911397328321834F
:100C900099E0949FF001959FF00D1124EA56FE4FC4
:100CA0000180F281E02D268137813093BD012093B0
:100CB000BC018093BA01A091BC01B091BD01CD915E
:100CC000CDBFDD91DEBFFF91EF91DF91CF91BF915D
:100CD000AF919F918F917F916F915F914F913F91D4
:100CE0002F911F910F91FF90EF90DF90CF90BF90C9
:100CF000AF909F908F907F906F905F904F903F90BC
:100D00002F901F900F900FBE0F9008958F929F927B
:100D1000AF92BF92CF92DF92EF92FF920F931F9309
:100D2000CF93DF930FB6F8940F92809171018150A9
:100D30008093710180917101882311F080E0F2C0ED
:100D40008091BE018823D1F3C0E0D0E029E0F22EEB
:100D5000EE24E39480918D01882351F1E09192017A
:100D6000F0919301C681D781CE010C960E940205B5
:100D70008E010E5F1F4FC8010E9402058E8990915F
:100D8000BA01981710F48093BA01F89EC00111249B
:100D9000B8018A569E4F0E942605E091BC01F09151
:100DA000BD019E8986899817A8F2E0925101D2CFA1
:100DB000CD2B11F00E947901E0905001EE2009F452
:100DC000A9C089E0982E88248394CC24CA94DC2C72
:100DD0008091710181118CC0C0917401D091750115
:100DE0002196D0937501C09374012097B9F4809136
:100DF000790190917A0120917701309178013093B7
:100E00007A01209379019093780180937701809102
:100E100076018F5F809376010E94790180916D0148
:100E200090916E01F12CC817D90708F451C0E091D8
:100E30007901F0917A018081811105C0D0926E0113
:100E4000C0926D0145C0E0917901F0917A01058071
:100E5000F681E02D06811781D80112968D919C9123
:100E60001397C817D90728F490936E0180936D01EA
:100E70002FC05801B2E0AB0EB11CC5010E940205A3
:100E8000F80184899589892B21F0C8010C960E946C
:100E90000205D80156968C919091BA01981710F4DA
:100EA0008093BA01989EC0011124B5018A569E4FC5
:100EB0000E942605E091BC01F091BD01D801569633
:100EC0009C918689981708F4B2CFFF24F394AFCF92
:100ED000E091BC01F091BD01E6899E9EF0011124D4
:100EE000EA56FE4F8081823048F0FF24F39406C01A
:100EF000809150018F5F80935001F12C80915101BE
:100F0000811101C0F11080925101EA94E11060CF8B
:100F10001092500180915101882309F40FCF0E9453
:100F2000C90581E00F900FBEDF91CF911F910F9106
:100F3000FF90EF90DF90CF90BF90AF909F908F90F9
:100F400008950F931F93CF93DF938C01FB01808152
:100F500091818F3F2FEF920721F4E801AF81B8858F
:100F60000EC0D801139612962D913C911397E9016A
:100F7000488159818417950710F0D901F4CF129652
:100F80008D919C91139793838283EC01FD83EC8375
:100F9000B583A4831396FC93EE9312971187008771
:100FA000F80180818F5F8083DF91CF911F910F9136
:100FB0000895EF92FF920F931F93CF93DF93E091E9
:100FC0005701F09158018081882369F10580F681ED
:100FD000E02D00811181C681D7817E0182E0E80E7B
:100FE000F11CC7010E940205E989FA89CE01099521
:100FF0008E85813021F78C859D85800F911F081784
:10100000190760F49B838A83D987C887B7018091C9
:101010005701909158010E94A107D1CFB801CE018C
:101020000E94580ECCCF809155019091560190931B
:10103000580180935701F0935601E0935501DF91D9
:10104000CF911F910F91FF90EF900895FC01738352
:101050006283918780874617570778F0421B530BAE
:101060008485958548175907C8F4BF016E5F7F4F87
:1010700080915501909156010DC04217530718F405
:101080006217730758F4BF016E5F7F4F809157015D
:10109000909158010E94A10780E0089581E0089591
:1010A000FF920F931F93CF93DF93EC01F62E0091E5
:1010B0007401109175018091BC019091BD0102965F
:1010C0000E940205CF3F8FEFD80789F4FF2079F007
:1010D0006091BC017091BD016E5F7F4F8BE791E025
:1010E000DF91CF911F910F91FF900C942605C00FB7
:1010F000D11FE091BC01F091BD01D383C283609107
:10110000BC017091BD01C017D10768F480917701CF
:10111000909178016E5F7F4FDF91CF911F910F917A
:10112000FF900C94A1078091790190917A016E5FF4
:101130007F4F0E94A10780916D0190916E01C817A9
:10114000D90720F4D0936E01C0936D01DF91CF9148
:101150001F910F91FF900895CF93DF93EC01892B9E
:1011600019F40E94C9050AC00E94F90460E0CE018A
:101170000E9450080E948606882399F3DF91CF9140
:101180000895FC010396928381832FEF3FEF348310
:101190002383968385839087878310820895CF93D6
:1011A000DF93009751F0EC010E94F904CE010E94F8
:1011B0001F0FDF91CF910C948606DF91CF91089598
:1011C000CF93DF93CDB7DEB72A970FB6F894DEBF83
:1011D0000FBECDBFE0915701F0915801F080FF2084
:1011E00031F00580F681E02D0081118102C000E020
:1011F00010E00E94F9040E94EC026C0180915301FE
:1012000090915401C816D90620F40E94D90781E0B4
:1012100001C080E0D0925401C0925301811175C089
:10122000FF2089F1C016D106B0F10E948606E09138
:101230005701F09158010580F681E02DE680F78096
:10124000C70102960E940205D7011E968C911E9737
:10125000813089F41C966D917C911D97600F711FF0
:101260009801A601C7010E942608882321F0B80131
:10127000C7010E94580ED7015196ED91FC915297EB
:10128000C7010995C8C0E0915501F09156018081D0
:10129000BB24B3948111B12CE0907201F0907301E2
:1012A0000FB6F8940F92F701858D8F3F09F4158ED4
:1012B000D7015E968C915E978F3F11F45E961C92DB
:1012C0000F900FBEF701828D811115C06091BC0196
:1012D0007091BD01645F7F4FC70141960E94260552
:1012E000B11004C0C8018C199D0902C08FEF9FEF97
:1012F0006B2D0E945008C7010E9487050E94860638
:10130000811189C00E94C90586C00E94860683C0DB
:10131000811109C0809176018E8380917401909132
:10132000750198878F830F900FBE0E94F9040FB646
:10133000F8940F92D8015D968C915D978F3F11F4D0
:101340005D961C92F801868D8F3F09F4168E0F90E2
:101350000FBEBE01675F7F4FCE0106960E94C30499
:101360008111D5C0C8010E94F602882309F4C9C0C2
:10137000E984FA846091BC017091BD01645F7F4F84
:10138000C6010E94A10761E0C7010E945008C80180
:101390000E9487050E948606882309F4AFC081E079
:1013A0000FB6F8940F92F801F28CFF2009F49EC05A
:1013B000448D41113CC0FA94F801F28E8085811170
:1013C00050C00F900FBED980D7FC25C00C811D8165
:1013D000D8011A968D919C911B97892B21F0C801F9
:1013E00002960E9402050E94EC027C01809153014A
:1013F00090915401E816F90610F40E94D907F09272
:101400005401E09253018D2DDD0C990BAA0BBB0BFF
:101410008A30910580F100917201109173011A8652
:10142000198680E06801B1E1CB0ED11CB9CF50E044
:1014300086819781840F951F9783868324813581C8
:101440008217930720F08081918197838683D8014A
:1014500016966D917C911797CE0101960E94AD0F63
:10146000AACFC80108960E944705882309F4A9CF8E
:101470000E94C905A6CFFC01EC5CFF4F0C94810EC5
:10148000CA80DB80F801648575856C0D7D1D960131
:10149000A701C8010E942608882309F4BCCFD801FF
:1014A0005196ED91FC915297C8010995F8018685F6
:1014B000813009F0B0CF648575856C0D7D1DC80144
:1014C0000E94580EA8CF6A817B81D8011D967C931B
:1014D0006E931C976E0D7F1D9701A701C8010E9496
:1014E000260899CFC8010E94CF0895CF29853A8553
:1014F000232B09F00DCF0F900FBE6CCE0E94C905B3
:101500004ECFC8010E9487050E94860648CFC801B9
:101510000E9487050E948606C8010E94F602882361
:1015200009F43DCF57CECF93DF93EC010E94F9042D
:10153000CE010E94870EEC010E948606209769F476
:10154000259A2D9A2FEF80E792E02150804090401D
:10155000E1F700C000001D9AF5CFCE01DF91CF91D9
:101560000895EFEBF1E01382128288EE93E0A0E0A1
:10157000B0E084839583A683B7838AE091E091836A
:10158000808385EC90E09587848784EC90E0978752
:10159000868780EC90E0918B808B81EC90E0938B40
:1015A000828B82EC90E0958B848B86EC90E0978B1D
:1015B000868B118E128E138E148E0895789484B5B6
:1015C000826084BD84B5816084BD85B5826085BD3F
:1015D00085B5816085BD80916E00816080936E00CD
:1015E00010928100809181008260809381008091BF
:1015F0008100816080938100809180008160809370
:1016000080008091B10084608093B1008091B0002F
:1016100081608093B00080917A00846080937A002A
:1016200080917A00826080937A0080917A00816054
:1016300080937A0080917A00806880937A0010927B
:10164000C1000E9494010FE611E020E040EC50E060
:101650006FE371E082E592E00E94E70C813009F0CF
:10166000B4C00FB6F8940F928091720190917301FB
:10167000892B09F050C082E691E00E94C10889E5FB
:1016800091E00E94C10882E691E090935801809316
:10169000570189E591E0909356018093550181E5CA
:1016A00090E00E94930AEC01009789F14F9699838C
:1016B00088838AE08B8F85E08C8F0FB6F8940F9229
:1016C000488159818B8D6C8D9A01869F200D311D2B
:1016D00011243D832C831A8E5B834A8390E001970B
:1016E000689F9001699F300D1124CA01820F931FDA
:1016F0009F838E838FEF8D8F8E8FCE0108960E94F1
:10170000C108CE0141960E94C1080F900FBED09330
:101710007301C09372010F900FBE8091720190917E
:101720007301892B09F451C00BE611E023E045E574
:1017300050E064E471E080EE98E00E94E70C8130B4
:1017400009F043C0F8942FEF3FEF30936E012093E0
:101750006D018093BB011092750110927401A895E0
:1017600090EC88E10FB6F894A895809360000FBEC6
:1017700090936000A091BC01B091BD01CD91CDBF0F
:10178000DD91DEBFFF91EF91DF91CF91BF91AF91DE
:101790009F918F917F916F915F914F913F912F9189
:1017A0001F910F91FF90EF90DF90CF90BF90AF907F
:1017B0009F908F907F906F905F904F903F902F9071
:1017C0001F900F900FBE0F9008950E9494010E94E9
:1017D0006F01FDCFAF92BF92CF92DF92EF92FF9257
:1017E0000F931F93CF93DF9300D000D01F92CDB7FC
:1017F000DEB78C017B011D821C8280E0680198E0CD
:10180000C90ED11C0FB6F8940F92F801228D938D5A
:10181000291708F06DC0D28C448D41113FC08081E2
:101820009181892B09F052C0F801E480F580E11420
:10183000F10411F480E02EC0F70182A1815082A34F
:10184000268991A12917B1F38111F4CF5701F2E054
:10185000AF0EB11CC5010E940205F70181A1868B64
:10186000482F50E024E030E0241B350B35872487D7
:101870009091BA01981710F48093BA0129E0249F3F
:10188000C001259F900D1124B5018A569E4F0E94DC
:10189000260581E0F8011582148219C050E0B701D5
:1018A000F801828193810E94AD0FF801248D82811D
:1018B0009381820F911D93838283248135818217C6
:1018C000930720F0808191819383828380E0D39479
:1018D000F801D28E9189992321F0C80141960E9486
:1018E000470581110E94C9050F900FBE81E05FC0BE
:1018F0002C813D81232B19F40F900FBE57C081110D
:1019000009C080917601898380917401909175015D
:101910009B838A830F900FBE0E94F9040FB6F89440
:101920000F92F801858D8F3F09F4158EF801868D91
:101930008F3F09F4168E0F900FBEBE016C5F7F4F74
:10194000CE0101960E94C30481112BC00FB6F894FA
:101950000F92F801928D838D0F900FBE98131BC0CC
:10196000AC80BD806091BC017091BD01645F7F4F10
:10197000C6010E94A10761E0C5010E945008C8018C
:101980000E9487050E948606882311F081E03ACFE5
:101990000E94C905FBCFC8010E9487050E948606E8
:1019A000F5CFC8010E9487050E94860680E00F904F
:1019B0000F900F900F900F90DF91CF911F910F918B
:1019C000FF90EF90DF90CF90BF90AF9008957F92FF
:1019D0008F929F92AF92BF92CF92DF92EF92FF923F
:1019E0000F931F93CF93DF93982EC92E762E872EB9
:1019F000EA01D22ECA010E94930A5C01892B09F4E4
:101A000048C188E290E00E94930A7C010097D9F0D7
:101A1000DC015896BC92AE925797AE0165EA70E031
:101A2000C5010E94B60F2197D7015796ED91FC9101
:101A30005897EC0FFD1FB701675E7F4FA72DB82D9C
:101A4000CD01089607C0C5010E94CF0822C1A81782
:101A5000B90749F09D014D91EB014993BE01E901A0
:101A600028812111F4CFD70190961C922D2D24307E
:101A700008F023E0E7012E8B29A31AA21B861A8601
:101A80001D8A1C8AF986E88684E090E0821B910911
:101A90009D878C87FB8AEA8A1BA21CA21DA21EA21C
:101AA0001FA291E19083DF01119782E28C9311973D
:101AB00023E32C9311979C921197CC9211971C922F
:101AC000119720E82C9311971C92119722E02C93E8
:101AD000119723E02C93119724E02C93119725E084
:101AE0002C93119726E02C93119727E02C931197B4
:101AF00028E02C93119729E02C93119720E12C9347
:101B000011979C93119792E19C93119793E19C9369
:101B1000119794E19C93119795E19C93119796E10D
:101B20009C93119797E19C93119798E19C9311973F
:101B300099E19C93119790E29C93119791E29C9369
:101B400011978C93119783E28C9311971C921197A4
:101B50001C92119786E28C93119787E28C931197D0
:101B600088E28C93119789E28C93119780E38C9390
:101B7000119781E38C93B697F983E88301151105DA
:101B800019F0F801F182E0820FB6F8940F9280917B
:101B9000BE018F5F8093BE018091BC019091BD0119
:101BA000892BD1F5F092BD01E092BC018091BE017C
:101BB000813009F043C086E991E00E94C1088FE9B5
:101BC00091E00E94C10888EA91E00E94C10881EB7F
:101BD00091E00E94C1088EE692E00E94C10885E66D
:101BE00092E00E94C1088DE891E00E94C10884E85B
:101BF00091E00E94C1088BE791E00E94C1088EE647
:101C000092E090937A018093790185E692E0909337
:101C100078018093770112C08091BB0181110EC0C1
:101C2000E091BC01F091BD019689D70156968C9147
:101C3000891720F0F092BD01E092BC0180917702FB
:101C40008F5F80937702E7018E899091BA01981790
:101C500010F48093BA01D9E08D9FC0011124B7011F
:101C60006E5F7F4F8A569E4F0E9426050F900FBED3
:101C70008091BB01882359F0E091BC01F091BD0136
:101C80009689F7018689981710F40E94C90581E0AA
:101C900001C08FEFDF91CF911F910F91FF90EF90D7
:101CA000DF90CF90BF90AF909F908F907F900895DE
:101CB000CF93DF9300D000D01F92CDB7DEB79C0149
:101CC0008091720190917301009761F019827B837A
:101CD0006A833D832C832091BB01222329F020912C
:101CE000710102C080E005C0BE016F5F7F4F0E949E
:101CF000EA0B0F900F900F900F900F90DF91CF9104
:101D00000895EE0FFF1F0590F491E02D09940F93B5
:101D10001F93CF93DF938230910510F482E090E01F
:101D2000E0917A02F0917B0220E030E0A0E0B0E0A8
:101D3000309719F140815181028113814817590769
:101D4000C8F08417950769F4109731F012960C9338
:101D5000129713961C9327C000937A0210937B026C
:101D600022C02115310519F04217530718F49A01C2
:101D7000BD01EF01DF01F801DBCF21153105F9F0DD
:101D8000281B390B2430310580F48A819B81611531
:101D9000710521F0FB019383828304C090937B0241
:101DA00080937A02FE01329644C0FE01E20FF31FD7
:101DB0008193919322503109398328833AC020912D
:101DC000780230917902232B41F420910201309165
:101DD0000301309379022093780220910001309121
:101DE00001012115310541F42DB73EB740910401A1
:101DF00050910501241B350BE0917802F091790296
:101E0000E217F307A0F42E1B3F0B2817390778F0D1
:101E1000AC014E5F5F4F2417350748F04E0F5F1F30
:101E200050937902409378028193919302C0E0E04D
:101E3000F0E0CF01DF91CF911F910F910895CF93E3
:101E4000DF93009709F481C0FC013297138212825C
:101E5000A0917A02B0917B02109781F420813181A8
:101E6000820F931F20917802309179022817390749
:101E700051F5F0937902E093780267C0ED0120E01C
:101E800030E0CE17DF0740F44A815B819E014115A7
:101E90005105F1F0EA01F5CFD383C283408151812E
:101EA000840F951FC817D90759F488819981840F29
:101EB000951F0296918380838A819B81938382837D
:101EC0002115310529F4F0937B02E0937A023DC09D
:101ED000E901FB83EA8349915991C40FD51FEC179F
:101EE000FD0761F480819181840F951F0296E901BD
:101EF00099838883828193819B838A83E0E0F0E0E9
:101F000012968D919C911397009719F0FD01DC01B9
:101F1000F7CF8D919C9111979D012E5F3F4F820FBE
:101F2000931F20917802309179022817390769F4BC
:101F3000309729F410927B0210927A0202C0138229
:101F40001282B0937902A0937802DF91CF91089525
:101F500081E090E0F8940C94BD0FFB01DC0102C01D
:101F600001900D9241505040D8F70895DC0101C016
:0E1F70006D9341505040E0F70895F894FFCF74
:101F7E0000007C0280000000000000016900970054
:101F8E004D01C800A600BA004D6A6531004D6A6564
:101F9E0032004D6A6533005461726561203300541E
:101FAE0061726561203200546172656120310049B1
:101FBE00444C4500546D7220537663000D0A0000A8
:00000001FF
