:020000000F28C7
:10000800CE00030E83128C0004088D000A088E00AF
:100018004F088F003A284D288B128B130330831614
:10002800850086018312061686168316811201162C
:10003800811101158114011421288312051C25281A
:1000480026282B28851829282A2821282B288B1789
:100058008B162E281008031D32282E2890011030E8
:100068008606203086062E282E280F288B138B1202
:1000780090010314900D0B118B168B170F08CF00EE
:100088000E088A000D0884000C0E8300CE0E4E0E5A
:0800980009009001830110280A
:00000001FF
