:020000000F28C7
:10000800CE00030E83128C0004088D000A088E00AF
:100018004F088F002B284E283B2083120616861681
:100028001528051C182819281E2885181C281D287D
:1000380015281E288B1620281008031D2428202880
:100048004820831290012028202820280F288B136D
:1000580090010314900D0B110F08CF000E088A00B1
:100068000D0884000C0E8300CE0E4E0E0900CF3012
:10007800831686001F308500811201168111011533
:10008800811401148B170800103083128606203063
:0A009800860608009001830110287D
:00000001FF
